{
  "contractName": "DEPORefundableCrowdsale",
  "abi": [
    {
      "constant": true,
      "inputs": [],
      "name": "soldTokensForETH",
      "outputs": [
        {
          "name": "",
          "type": "uint256"
        }
      ],
      "payable": false,
      "stateMutability": "view",
      "type": "function"
    },
    {
      "constant": true,
      "inputs": [],
      "name": "NORMAL_RATE",
      "outputs": [
        {
          "name": "",
          "type": "uint256"
        }
      ],
      "payable": false,
      "stateMutability": "view",
      "type": "function"
    },
    {
      "constant": true,
      "inputs": [],
      "name": "TOKENS_FOR_SALE_CAP",
      "outputs": [
        {
          "name": "",
          "type": "uint256"
        }
      ],
      "payable": false,
      "stateMutability": "view",
      "type": "function"
    },
    {
      "constant": false,
      "inputs": [],
      "name": "closeVault",
      "outputs": [],
      "payable": false,
      "stateMutability": "nonpayable",
      "type": "function"
    },
    {
      "constant": true,
      "inputs": [],
      "name": "reserveVestingAddress",
      "outputs": [
        {
          "name": "",
          "type": "address"
        }
      ],
      "payable": false,
      "stateMutability": "view",
      "type": "function"
    },
    {
      "constant": true,
      "inputs": [],
      "name": "startingTokenAmount",
      "outputs": [
        {
          "name": "",
          "type": "uint256"
        }
      ],
      "payable": false,
      "stateMutability": "view",
      "type": "function"
    },
    {
      "constant": true,
      "inputs": [],
      "name": "whitelister",
      "outputs": [
        {
          "name": "",
          "type": "address"
        }
      ],
      "payable": false,
      "stateMutability": "view",
      "type": "function"
    },
    {
      "constant": true,
      "inputs": [],
      "name": "rate",
      "outputs": [
        {
          "name": "",
          "type": "uint256"
        }
      ],
      "payable": false,
      "stateMutability": "view",
      "type": "function"
    },
    {
      "constant": true,
      "inputs": [],
      "name": "endTime",
      "outputs": [
        {
          "name": "",
          "type": "uint256"
        }
      ],
      "payable": false,
      "stateMutability": "view",
      "type": "function"
    },
    {
      "constant": false,
      "inputs": [],
      "name": "unpause",
      "outputs": [],
      "payable": false,
      "stateMutability": "nonpayable",
      "type": "function"
    },
    {
      "constant": true,
      "inputs": [],
      "name": "goal",
      "outputs": [
        {
          "name": "",
          "type": "uint256"
        }
      ],
      "payable": false,
      "stateMutability": "view",
      "type": "function"
    },
    {
      "constant": true,
      "inputs": [],
      "name": "weiRaised",
      "outputs": [
        {
          "name": "",
          "type": "uint256"
        }
      ],
      "payable": false,
      "stateMutability": "view",
      "type": "function"
    },
    {
      "constant": false,
      "inputs": [],
      "name": "finalize",
      "outputs": [],
      "payable": false,
      "stateMutability": "nonpayable",
      "type": "function"
    },
    {
      "constant": true,
      "inputs": [],
      "name": "wallet",
      "outputs": [
        {
          "name": "",
          "type": "address"
        }
      ],
      "payable": false,
      "stateMutability": "view",
      "type": "function"
    },
    {
      "constant": false,
      "inputs": [
        {
          "name": "_beneficiaries",
          "type": "address[]"
        },
        {
          "name": "KYC_IDs",
          "type": "bytes32[]"
        }
      ],
      "name": "addManyToWhitelist",
      "outputs": [],
      "payable": false,
      "stateMutability": "nonpayable",
      "type": "function"
    },
    {
      "constant": true,
      "inputs": [],
      "name": "paused",
      "outputs": [
        {
          "name": "",
          "type": "bool"
        }
      ],
      "payable": false,
      "stateMutability": "view",
      "type": "function"
    },
    {
      "constant": true,
      "inputs": [],
      "name": "curveIncreaseRateInRay",
      "outputs": [
        {
          "name": "",
          "type": "uint256"
        }
      ],
      "payable": false,
      "stateMutability": "view",
      "type": "function"
    },
    {
      "constant": true,
      "inputs": [],
      "name": "startTime",
      "outputs": [
        {
          "name": "",
          "type": "uint256"
        }
      ],
      "payable": false,
      "stateMutability": "view",
      "type": "function"
    },
    {
      "constant": true,
      "inputs": [],
      "name": "goalReached",
      "outputs": [
        {
          "name": "",
          "type": "bool"
        }
      ],
      "payable": false,
      "stateMutability": "view",
      "type": "function"
    },
    {
      "constant": false,
      "inputs": [],
      "name": "pause",
      "outputs": [],
      "payable": false,
      "stateMutability": "nonpayable",
      "type": "function"
    },
    {
      "constant": true,
      "inputs": [],
      "name": "FIRST_BONUS_CAP",
      "outputs": [
        {
          "name": "",
          "type": "uint256"
        }
      ],
      "payable": false,
      "stateMutability": "view",
      "type": "function"
    },
    {
      "constant": false,
      "inputs": [
        {
          "name": "_beneficiary",
          "type": "address"
        }
      ],
      "name": "removeFromWhitelist",
      "outputs": [],
      "payable": false,
      "stateMutability": "nonpayable",
      "type": "function"
    },
    {
      "constant": true,
      "inputs": [],
      "name": "isFinalized",
      "outputs": [
        {
          "name": "",
          "type": "bool"
        }
      ],
      "payable": false,
      "stateMutability": "view",
      "type": "function"
    },
    {
      "constant": true,
      "inputs": [],
      "name": "owner",
      "outputs": [
        {
          "name": "",
          "type": "address"
        }
      ],
      "payable": false,
      "stateMutability": "view",
      "type": "function"
    },
    {
      "constant": true,
      "inputs": [],
      "name": "soldTokensPrivate",
      "outputs": [
        {
          "name": "",
          "type": "uint256"
        }
      ],
      "payable": false,
      "stateMutability": "view",
      "type": "function"
    },
    {
      "constant": true,
      "inputs": [
        {
          "name": "",
          "type": "address"
        }
      ],
      "name": "whitelist",
      "outputs": [
        {
          "name": "",
          "type": "bytes32"
        }
      ],
      "payable": false,
      "stateMutability": "view",
      "type": "function"
    },
    {
      "constant": true,
      "inputs": [],
      "name": "PRIVATE_PRE_SALE_END",
      "outputs": [
        {
          "name": "",
          "type": "uint32"
        }
      ],
      "payable": false,
      "stateMutability": "view",
      "type": "function"
    },
    {
      "constant": true,
      "inputs": [
        {
          "name": "_weiAmount",
          "type": "uint256"
        }
      ],
      "name": "getTokensForWei",
      "outputs": [
        {
          "name": "tokensToMint",
          "type": "uint256"
        }
      ],
      "payable": false,
      "stateMutability": "view",
      "type": "function"
    },
    {
      "constant": false,
      "inputs": [],
      "name": "claimRefund",
      "outputs": [],
      "payable": false,
      "stateMutability": "nonpayable",
      "type": "function"
    },
    {
      "constant": false,
      "inputs": [
        {
          "name": "_beneficiary",
          "type": "address"
        },
        {
          "name": "_tokens",
          "type": "uint256"
        }
      ],
      "name": "sendPrivatePreSaleTokens",
      "outputs": [
        {
          "name": "success",
          "type": "bool"
        }
      ],
      "payable": false,
      "stateMutability": "nonpayable",
      "type": "function"
    },
    {
      "constant": true,
      "inputs": [],
      "name": "initialPriceInRay",
      "outputs": [
        {
          "name": "",
          "type": "uint256"
        }
      ],
      "payable": false,
      "stateMutability": "view",
      "type": "function"
    },
    {
      "constant": false,
      "inputs": [
        {
          "name": "_beneficiary",
          "type": "address"
        }
      ],
      "name": "buyTokens",
      "outputs": [],
      "payable": true,
      "stateMutability": "payable",
      "type": "function"
    },
    {
      "constant": true,
      "inputs": [],
      "name": "hasEnded",
      "outputs": [
        {
          "name": "",
          "type": "bool"
        }
      ],
      "payable": false,
      "stateMutability": "view",
      "type": "function"
    },
    {
      "constant": false,
      "inputs": [
        {
          "name": "newOwner",
          "type": "address"
        }
      ],
      "name": "transferOwnership",
      "outputs": [],
      "payable": false,
      "stateMutability": "nonpayable",
      "type": "function"
    },
    {
      "constant": false,
      "inputs": [
        {
          "name": "_newWhitelister",
          "type": "address"
        }
      ],
      "name": "setWhitelister",
      "outputs": [],
      "payable": false,
      "stateMutability": "nonpayable",
      "type": "function"
    },
    {
      "constant": true,
      "inputs": [],
      "name": "SECOND_BONUS_CAP",
      "outputs": [
        {
          "name": "",
          "type": "uint256"
        }
      ],
      "payable": false,
      "stateMutability": "view",
      "type": "function"
    },
    {
      "constant": true,
      "inputs": [],
      "name": "vault",
      "outputs": [
        {
          "name": "",
          "type": "address"
        }
      ],
      "payable": false,
      "stateMutability": "view",
      "type": "function"
    },
    {
      "constant": true,
      "inputs": [],
      "name": "token",
      "outputs": [
        {
          "name": "",
          "type": "address"
        }
      ],
      "payable": false,
      "stateMutability": "view",
      "type": "function"
    },
    {
      "constant": false,
      "inputs": [
        {
          "name": "_beneficiary",
          "type": "address"
        },
        {
          "name": "KYC_ID",
          "type": "bytes32"
        }
      ],
      "name": "addToWhitelist",
      "outputs": [],
      "payable": false,
      "stateMutability": "nonpayable",
      "type": "function"
    },
    {
      "inputs": [
        {
          "name": "_tokenAddress",
          "type": "address"
        },
        {
          "name": "_startTime",
          "type": "uint256"
        },
        {
          "name": "_endTime",
          "type": "uint256"
        },
        {
          "name": "_startingTokenBalance",
          "type": "uint256"
        },
        {
          "name": "_goal",
          "type": "uint256"
        },
        {
          "name": "_whitelister",
          "type": "address"
        },
        {
          "name": "_reserveVestingAddress",
          "type": "address"
        },
        {
          "name": "_wallet",
          "type": "address"
        }
      ],
      "payable": false,
      "stateMutability": "nonpayable",
      "type": "constructor"
    },
    {
      "payable": true,
      "stateMutability": "payable",
      "type": "fallback"
    },
    {
      "anonymous": false,
      "inputs": [
        {
          "indexed": false,
          "name": "beneficiary",
          "type": "address"
        },
        {
          "indexed": false,
          "name": "tokens",
          "type": "uint256"
        }
      ],
      "name": "PreSaleTokens",
      "type": "event"
    },
    {
      "anonymous": false,
      "inputs": [],
      "name": "Finalized",
      "type": "event"
    },
    {
      "anonymous": false,
      "inputs": [],
      "name": "Pause",
      "type": "event"
    },
    {
      "anonymous": false,
      "inputs": [],
      "name": "Unpause",
      "type": "event"
    },
    {
      "anonymous": false,
      "inputs": [
        {
          "indexed": true,
          "name": "previousOwner",
          "type": "address"
        },
        {
          "indexed": true,
          "name": "newOwner",
          "type": "address"
        }
      ],
      "name": "OwnershipTransferred",
      "type": "event"
    },
    {
      "anonymous": false,
      "inputs": [
        {
          "indexed": true,
          "name": "purchaser",
          "type": "address"
        },
        {
          "indexed": true,
          "name": "beneficiary",
          "type": "address"
        },
        {
          "indexed": false,
          "name": "value",
          "type": "uint256"
        },
        {
          "indexed": false,
          "name": "amount",
          "type": "uint256"
        }
      ],
      "name": "TokenPurchase",
      "type": "event"
    }
  ],
  "bytecode": "0x60806040526006805460a060020a61ffff021916905569032d26d12e980b600000600e556b033b2e3cadb136f08f640000600f553480156200004057600080fd5b5060405161010080620021c283398101604090815281516020830151918301516060840151608085015160a086015160c087015160e09097015194969394929391929091908787878787878787848488886201046a8c8642851015620000a557600080fd5b84841015620000b357600080fd5b60008311620000c157600080fd5b600160a060020a0381161515620000d757600080fd5b620000eb8264010000000062000204810204565b60008054600160a060020a0319908116600160a060020a039384161782556001979097556002959095556004939093556003805486169184169190911790555060068054909316339091161790915581116200014657600080fd5b600354600160a060020a03166200015c62000207565b600160a060020a03909116815260405190819003602001906000f0801580156200018a573d6000803e3d6000fd5b50600b8054600160a060020a031916600160a060020a0392909216919091179055600955600a556213c68087870311620001c357600080fd5b50600d8054600160a060020a03938416600160a060020a0319918216179091556010805492909316911617905550620002189b505050505050505050505050565b90565b60405161077e8062001a4483390190565b61181c80620002286000396000f3006080604052600436106101e25763ffffffff7c0100000000000000000000000000000000000000000000000000000000600035041663046e0a6c81146101ed5780631369ddba1461021457806314a839c11461022957806318976fa21461023e5780631c74e344146102535780631e912b471461028457806322758a4a146102995780632c4e722e146102ae5780633197cbb6146102c35780633f4ba83a146102d857806340193883146102ed5780634042b66f146103025780634bb278f314610317578063521eb2731461032c57806359df9be1146103415780635c975abb1461036d5780636c524e7e1461039657806378e97925146103ab5780637d3d6522146103c05780638456cb59146103d5578063848d5273146103ea5780638ab1d681146103ff5780638d4e4083146104205780638da5cb5b14610435578063980a98cb1461044a5780639b19251a1461045f578063a55a8d8a14610480578063a90a3d34146104ae578063b5545a3c146104c6578063cec225c6146104db578063e3210f4a146104ff578063ec8ac4d814610514578063ecb70fb714610528578063f2fde38b1461053d578063f98f5b921461055e578063f9f4e1761461057f578063fbfa77cf14610594578063fc0c546a146105a9578063ffe3aa7e146105be575b6101eb336105e2565b005b3480156101f957600080fd5b506102026107b5565b60408051918252519081900360200190f35b34801561022057600080fd5b506102026107bb565b34801561023557600080fd5b506102026107c2565b34801561024a57600080fd5b506101eb6107d2565b34801561025f57600080fd5b50610268610886565b60408051600160a060020a039092168252519081900360200190f35b34801561029057600080fd5b50610202610895565b3480156102a557600080fd5b5061026861089b565b3480156102ba57600080fd5b506102026108aa565b3480156102cf57600080fd5b506102026108b0565b3480156102e457600080fd5b506101eb6108b6565b3480156102f957600080fd5b50610202610943565b34801561030e57600080fd5b50610202610949565b34801561032357600080fd5b506101eb61094f565b34801561033857600080fd5b50610268610a19565b34801561034d57600080fd5b506101eb6024600480358281019290820135918135918201910135610a28565b34801561037957600080fd5b50610382610aaf565b604080519115158252519081900360200190f35b3480156103a257600080fd5b50610202610ad0565b3480156103b757600080fd5b50610202610ad6565b3480156103cc57600080fd5b50610382610adc565b3480156103e157600080fd5b506101eb610af1565b3480156103f657600080fd5b50610202610b94565b34801561040b57600080fd5b506101eb600160a060020a0360043516610ba3565b34801561042c57600080fd5b50610382610bed565b34801561044157600080fd5b50610268610c0f565b34801561045657600080fd5b50610202610c1e565b34801561046b57600080fd5b50610202600160a060020a0360043516610c24565b34801561048c57600080fd5b50610495610c36565b6040805163ffffffff9092168252519081900360200190f35b3480156104ba57600080fd5b50610202600435610c3e565b3480156104d257600080fd5b506101eb610d95565b3480156104e757600080fd5b50610382600160a060020a0360043516602435610e38565b34801561050b57600080fd5b50610202610f9c565b6101eb600160a060020a03600435166105e2565b34801561053457600080fd5b50610382610fa2565b34801561054957600080fd5b506101eb600160a060020a0360043516610fd8565b34801561056a57600080fd5b506101eb600160a060020a0360043516611071565b34801561058b57600080fd5b506102026110d0565b3480156105a057600080fd5b506102686110df565b3480156105b557600080fd5b506102686110ee565b3480156105ca57600080fd5b506101eb600160a060020a03600435166024356110fd565b600160a060020a0381166000908152600c6020526040812054819081908490151561060c57600080fd5b662386f26fc1000093503484111561062357600080fd5b600160a060020a038516151561063857600080fd5b610640611134565b151561064b57600080fd5b635b2c3c01421161065b57600080fd5b34925061066783611164565b60055490925061067d908463ffffffff6111bd16565b600555600754610693908363ffffffff6111bd16565b6007556106a6828463ffffffff6111d716565b600490815560008054604080517fa9059cbb000000000000000000000000000000000000000000000000000000008152600160a060020a038a811695820195909552602481018790529051939091169263a9059cbb92604480840193602093929083900390910190829087803b15801561071f57600080fd5b505af1158015610733573d6000803e3d6000fd5b505050506040513d602081101561074957600080fd5b5051151561075357fe5b84600160a060020a031633600160a060020a03167f623b3804fa71d67900d064613da8f94b9617215ee90799290593e1745087ad188585604051808381526020018281526020019250505060405180910390a36107ae6111ee565b5050505050565b60075481565b6201046a81565b6b051e410c0f93fe543000000081565b60065433600160a060020a039081169116146107ed57600080fd5b6107f5610adc565b151561080057600080fd5b600b60009054906101000a9004600160a060020a0316600160a060020a03166343d726d66040518163ffffffff167c0100000000000000000000000000000000000000000000000000000000028152600401600060405180830381600087803b15801561086c57600080fd5b505af1158015610880573d6000803e3d6000fd5b50505050565b601054600160a060020a031681565b600a5481565b600d54600160a060020a031681565b60045481565b60025481565b60065433600160a060020a039081169116146108d157600080fd5b60065474010000000000000000000000000000000000000000900460ff1615156108fa57600080fd5b6006805474ff0000000000000000000000000000000000000000191690556040517f7805862f689e2f13df9f062ff482ad3ad112aca9e0847911ed832e158c525b3390600090a1565b60095481565b60055481565b60065433600160a060020a0390811691161461096a57600080fd5b6006547501000000000000000000000000000000000000000000900460ff161561099357600080fd5b61099b610fa2565b15156109a657600080fd5b6109ae6113a1565b6040517f6823b073d48d6e3a7d385eeb601452d680e74bb46afe3255a7d778f3a9b1768190600090a1600680547fffffffffffffffffffff00ffffffffffffffffffffffffffffffffffffffffff167501000000000000000000000000000000000000000000179055565b600354600160a060020a031681565b600d5460009033600160a060020a03908116911614610a4657600080fd5b838214610a5257600080fd5b5060005b838110156107ae57828282818110610a6a57fe5b60200291909101359050600c6000878785818110610a8457fe5b60209081029290920135600160a060020a031683525081019190915260400160002055600101610a56565b60065474010000000000000000000000000000000000000000900460ff1681565b600f5481565b60015481565b600954600b54600160a060020a031631101590565b60065433600160a060020a03908116911614610b0c57600080fd5b60065474010000000000000000000000000000000000000000900460ff1615610b3457600080fd5b6006805474ff00000000000000000000000000000000000000001916740100000000000000000000000000000000000000001790556040517f6985a02210a168e66602d3235cb6db0e70f92b3ba4d376a33c0f3d9434bff62590600090a1565b6a52b7d2dcc80cd2e400000081565b600d5433600160a060020a03908116911614610bbe57600080fd5b600160a060020a0381161515610bd357600080fd5b600160a060020a03166000908152600c6020526040812055565b6006547501000000000000000000000000000000000000000000900460ff1681565b600654600160a060020a031681565b60085481565b600c6020526000908152604090205481565b635b2c3c0181565b6000806000806000610c63670de0b6b3a76400006007546111d790919063ffffffff16565b9250610c7c600e54610c77600f548661146a565b6114c6565b9150610c9282633b9aca0063ffffffff6111d716565b90506a52b7d2dcc80cd2e4000000610cb76008546007546111bd90919063ffffffff16565b11610d1357610ce4670de0b6b3a7640000610cd8888463ffffffff6111d716565b9063ffffffff61150516565b9350610d0c610cff6003610cd887600463ffffffff6111d716565b859063ffffffff6111bd16565b9450610d8c565b6aa56fa5b99019a5c8000000610d366008546007546111bd90919063ffffffff16565b11610d6d57610d57670de0b6b3a7640000610cd8888463ffffffff6111d716565b9350610d0c610cff85600263ffffffff6111d716565b610d89670de0b6b3a7640000610cd8888463ffffffff6111d716565b94505b50505050919050565b6006547501000000000000000000000000000000000000000000900460ff161515610dbf57600080fd5b610dc7610adc565b15610dd157600080fd5b600b54604080517ffa89401a000000000000000000000000000000000000000000000000000000008152600160a060020a0333811660048301529151919092169163fa89401a91602480830192600092919082900301818387803b15801561086c57600080fd5b60065460009033600160a060020a03908116911614610e5657600080fd5b6008546aa56fa5b99019a5c800000090610e76908463ffffffff6111bd16565b1115610e8157600080fd5b635b2c3c01421115610e9257600080fd5b600854610ea5908363ffffffff6111bd16565b60085560008054604080517fa9059cbb000000000000000000000000000000000000000000000000000000008152600160a060020a038781166004830152602482018790529151919092169263a9059cbb92604480820193602093909283900390910190829087803b158015610f1a57600080fd5b505af1158015610f2e573d6000803e3d6000fd5b505050506040513d6020811015610f4457600080fd5b50511515610f4e57fe5b60408051600160a060020a03851681526020810184905281517f636dd95b98ddceb965ca611bd42de0a797d3bc1c346aa9e025b1b90e514d91ed929181900390910190a15060015b92915050565b600e5481565b6000600254421180610fd35750600854600754610fc49163ffffffff6111bd16565b6b051e410c0f93fe5430000000145b905090565b60065433600160a060020a03908116911614610ff357600080fd5b600160a060020a038116151561100857600080fd5b600654604051600160a060020a038084169216907f8be0079c531659141344cd1fd0a4f28419497f9722a3daafe3b4186f6b6457e090600090a36006805473ffffffffffffffffffffffffffffffffffffffff1916600160a060020a0392909216919091179055565b60065433600160a060020a0390811691161461108c57600080fd5b600160a060020a03811615156110a157600080fd5b600d805473ffffffffffffffffffffffffffffffffffffffff1916600160a060020a0392909216919091179055565b6aa56fa5b99019a5c800000081565b600b54600160a060020a031681565b600054600160a060020a031681565b600d5433600160a060020a0390811691161461111857600080fd5b600160a060020a039091166000908152600c6020526040902055565b6000806000600154421015801561114d57506002544211155b91505034151581801561115d5750805b9250505090565b60008080831161117357600080fd5b61117c83610c3e565b90506b051e410c0f93fe54300000006111b2826111a66008546007546111bd90919063ffffffff16565b9063ffffffff6111bd16565b1115610f9657600080fd5b6000828201838110156111cc57fe5b8091505b5092915050565b60008082848115156111e557fe5b04949350505050565b600a546008546007546112069163ffffffff6111bd16565b101561124b57600354604051600160a060020a03909116903480156108fc02916000818181858888f19350505050158015611245573d6000803e3d6000fd5b5061139f565b600b54604080517fc19d93fb0000000000000000000000000000000000000000000000000000000081529051600292600160a060020a03169163c19d93fb9160048083019260209291908290030181600087803b1580156112ab57600080fd5b505af11580156112bf573d6000803e3d6000fd5b505050506040513d60208110156112d557600080fd5b505160028111156112e257fe5b141561132157600354604051600160a060020a03909116903480156108fc02916000818181858888f19350505050158015611245573d6000803e3d6000fd5b600b54604080517ff340fa01000000000000000000000000000000000000000000000000000000008152600160a060020a0333811660048301529151919092169163f340fa0191349160248082019260009290919082900301818588803b15801561138b57600080fd5b505af11580156107ae573d6000803e3d6000fd5b565b60006113ab611530565b6113b361178c565b905060008111156114675760008054601054604080517fa9059cbb000000000000000000000000000000000000000000000000000000008152600160a060020a039283166004820152602481018690529051919092169263a9059cbb92604480820193602093909283900390910190829087803b15801561143357600080fd5b505af1158015611447573d6000803e3d6000fd5b505050506040513d602081101561145d57600080fd5b5051151561146757fe5b50565b6000600282061515611488576b033b2e3c9fd0803ce800000061148a565b825b90506002820491505b8115610f96576114a383846114c6565b925060028206156114bb576114b881846114c6565b90505b600282049150611493565b60006b033b2e3c9fd0803ce80000006114f46114e285856117b8565b6b019d971e4fe8401e740000006117e0565b8115156114fd57fe5b049392505050565b60008083151561151857600091506111d0565b5082820282848281151561152857fe5b04146111cc57fe5b611538610adc565b1561166357600b54604080517fc19d93fb0000000000000000000000000000000000000000000000000000000081529051600092600160a060020a03169163c19d93fb91600480830192602092919082900301818787803b15801561159c57600080fd5b505af11580156115b0573d6000803e3d6000fd5b505050506040513d60208110156115c657600080fd5b505160028111156115d357fe5b141561165e57600b60009054906101000a9004600160a060020a0316600160a060020a03166343d726d66040518163ffffffff167c0100000000000000000000000000000000000000000000000000000000028152600401600060405180830381600087803b15801561164557600080fd5b505af1158015611659573d6000803e3d6000fd5b505050505b611784565b600b54604080517fc19d93fb0000000000000000000000000000000000000000000000000000000081529051600092600160a060020a03169163c19d93fb91600480830192602092919082900301818787803b1580156116c257600080fd5b505af11580156116d6573d6000803e3d6000fd5b505050506040513d60208110156116ec57600080fd5b505160028111156116f957fe5b141561178457600b60009054906101000a9004600160a060020a0316600160a060020a0316638c52dc416040518163ffffffff167c0100000000000000000000000000000000000000000000000000000000028152600401600060405180830381600087803b15801561176b57600080fd5b505af115801561177f573d6000803e3d6000fd5b505050505b61139f61139f565b60006117a56008546007546111bd90919063ffffffff16565b6b051e410c0f93fe543000000003905090565b60008115806117d55750508082028282828115156117d257fe5b04145b1515610f9657600080fd5b80820182811015610f9657600080fd00a165627a7a72305820c90a1b09a64c47020dda8350da00a0d2cc0037aa0d009adca5597fa63a7ccef00029608060405234801561001057600080fd5b5060405160208061077e833981016040525160008054600160a060020a03191633600160a060020a03908116919091179091558116151561005057600080fd5b60028054600160a060020a031916600160a060020a03929092169190911760a060020a60ff02191690556106f5806100896000396000f3006080604052600436106100985763ffffffff7c010000000000000000000000000000000000000000000000000000000060003504166343d726d6811461009d578063521eb273146100b45780638c52dc41146100f25780638da5cb5b14610107578063c19d93fb1461011c578063cb13cddb14610155578063f2fde38b14610195578063f340fa01146101c3578063fa89401a146101e4575b600080fd5b3480156100a957600080fd5b506100b2610212565b005b3480156100c057600080fd5b506100c9610318565b6040805173ffffffffffffffffffffffffffffffffffffffff9092168252519081900360200190f35b3480156100fe57600080fd5b506100b2610334565b34801561011357600080fd5b506100c96103f1565b34801561012857600080fd5b5061013161040d565b6040518082600281111561014157fe5b60ff16815260200191505060405180910390f35b34801561016157600080fd5b5061018373ffffffffffffffffffffffffffffffffffffffff6004351661042e565b60408051918252519081900360200190f35b3480156101a157600080fd5b506100b273ffffffffffffffffffffffffffffffffffffffff60043516610440565b6100b273ffffffffffffffffffffffffffffffffffffffff60043516610517565b3480156101f057600080fd5b506100b273ffffffffffffffffffffffffffffffffffffffff600435166105d3565b6000543373ffffffffffffffffffffffffffffffffffffffff90811691161461023a57600080fd5b60006002805474010000000000000000000000000000000000000000900460ff169081111561026557fe5b1461026f57600080fd5b6002805474ff00000000000000000000000000000000000000001916740200000000000000000000000000000000000000001790556040517f1cdde67b72a90f19919ac732a437ac2f7a10fc128d28c2a6e525d89ce5cd9d3a90600090a160025460405173ffffffffffffffffffffffffffffffffffffffff9182169130163180156108fc02916000818181858888f19350505050158015610315573d6000803e3d6000fd5b50565b60025473ffffffffffffffffffffffffffffffffffffffff1681565b6000543373ffffffffffffffffffffffffffffffffffffffff90811691161461035c57600080fd5b60006002805474010000000000000000000000000000000000000000900460ff169081111561038757fe5b1461039157600080fd5b6002805474ff00000000000000000000000000000000000000001916740100000000000000000000000000000000000000001790556040517f599d8e5a83cffb867d051598c4d70e805d59802d8081c1c7d6dffc5b6aca2b8990600090a1565b60005473ffffffffffffffffffffffffffffffffffffffff1681565b60025474010000000000000000000000000000000000000000900460ff1681565b60016020526000908152604090205481565b6000543373ffffffffffffffffffffffffffffffffffffffff90811691161461046857600080fd5b73ffffffffffffffffffffffffffffffffffffffff8116151561048a57600080fd5b6000805460405173ffffffffffffffffffffffffffffffffffffffff808516939216917f8be0079c531659141344cd1fd0a4f28419497f9722a3daafe3b4186f6b6457e091a3600080547fffffffffffffffffffffffff00000000000000000000000000000000000000001673ffffffffffffffffffffffffffffffffffffffff92909216919091179055565b6000543373ffffffffffffffffffffffffffffffffffffffff90811691161461053f57600080fd5b60006002805474010000000000000000000000000000000000000000900460ff169081111561056a57fe5b1461057457600080fd5b73ffffffffffffffffffffffffffffffffffffffff81166000908152600160205260409020546105aa903463ffffffff6106b316565b73ffffffffffffffffffffffffffffffffffffffff909116600090815260016020526040902055565b600060016002805474010000000000000000000000000000000000000000900460ff169081111561060057fe5b1461060a57600080fd5b5073ffffffffffffffffffffffffffffffffffffffff8116600081815260016020526040808220805490839055905190929183156108fc02918491818181858888f19350505050158015610662573d6000803e3d6000fd5b5060408051828152905173ffffffffffffffffffffffffffffffffffffffff8416917fd7dee2702d63ad89917b6a4da9981c90c4d24f8c2bdfd64c604ecae57d8d0651919081900360200190a25050565b6000828201838110156106c257fe5b93925050505600a165627a7a72305820d85732e6938d5df482011fd8202647dea83bc47bd5204d5e09b577eb466bd1fb0029",
  "source": "pragma solidity ^0.4.18;\n\nimport \"./ICOCrowdsale.sol\";\n\n/**\n * @title DEPORefundableCrowdsale\n * Depository network ICO Crowdsale contract\n */\n\ncontract DEPORefundableCrowdsale is ICOCrowdsale {\n\n    function DEPORefundableCrowdsale(\n        address _tokenAddress,\n        uint256 _startTime,\n        uint256 _endTime,\n        uint256 _startingTokenBalance,\n        uint256 _goal,\n        address _whitelister,\n        address _reserveVestingAddress,\n        address _wallet\n    ) public\n    FinalizableCrowdsale()\n    ICOCrowdsale(\n        _tokenAddress,\n        _startTime,\n        _endTime,\n        _startingTokenBalance,\n        _goal,\n        _whitelister,\n        _reserveVestingAddress,\n        _wallet) {\n    }\n}",
  "sourcePath": "/Users/chris/Projects/DEPO/innimmo-ico/contracts/DEPORefundableCrowdsale.sol",
  "compiler": {
    "name": "solc",
    "version": "0.4.23+commit.124ca40d.Emscripten.clang"
  },
  "schemaVersion": "2.0.0",
  "updatedAt": "2018-05-31T15:04:03.263Z"
}