{
  "contractName": "ICOToken",
  "abi": [
    {
      "constant": true,
      "inputs": [],
      "name": "mintingFinished",
      "outputs": [
        {
          "name": "",
          "type": "bool"
        }
      ],
      "payable": false,
      "stateMutability": "view",
      "type": "function"
    },
    {
      "constant": true,
      "inputs": [],
      "name": "name",
      "outputs": [
        {
          "name": "",
          "type": "string"
        }
      ],
      "payable": false,
      "stateMutability": "view",
      "type": "function"
    },
    {
      "constant": false,
      "inputs": [
        {
          "name": "_spender",
          "type": "address"
        },
        {
          "name": "_value",
          "type": "uint256"
        }
      ],
      "name": "approve",
      "outputs": [
        {
          "name": "",
          "type": "bool"
        }
      ],
      "payable": false,
      "stateMutability": "nonpayable",
      "type": "function"
    },
    {
      "constant": true,
      "inputs": [],
      "name": "totalSupply",
      "outputs": [
        {
          "name": "",
          "type": "uint256"
        }
      ],
      "payable": false,
      "stateMutability": "view",
      "type": "function"
    },
    {
      "constant": false,
      "inputs": [
        {
          "name": "_from",
          "type": "address"
        },
        {
          "name": "_to",
          "type": "address"
        },
        {
          "name": "_value",
          "type": "uint256"
        }
      ],
      "name": "transferFrom",
      "outputs": [
        {
          "name": "",
          "type": "bool"
        }
      ],
      "payable": false,
      "stateMutability": "nonpayable",
      "type": "function"
    },
    {
      "constant": true,
      "inputs": [],
      "name": "decimals",
      "outputs": [
        {
          "name": "",
          "type": "uint8"
        }
      ],
      "payable": false,
      "stateMutability": "view",
      "type": "function"
    },
    {
      "constant": true,
      "inputs": [],
      "name": "cap",
      "outputs": [
        {
          "name": "",
          "type": "uint256"
        }
      ],
      "payable": false,
      "stateMutability": "view",
      "type": "function"
    },
    {
      "constant": false,
      "inputs": [],
      "name": "unpause",
      "outputs": [],
      "payable": false,
      "stateMutability": "nonpayable",
      "type": "function"
    },
    {
      "constant": false,
      "inputs": [
        {
          "name": "_to",
          "type": "address"
        },
        {
          "name": "_amount",
          "type": "uint256"
        }
      ],
      "name": "mint",
      "outputs": [
        {
          "name": "",
          "type": "bool"
        }
      ],
      "payable": false,
      "stateMutability": "nonpayable",
      "type": "function"
    },
    {
      "constant": true,
      "inputs": [],
      "name": "paused",
      "outputs": [
        {
          "name": "",
          "type": "bool"
        }
      ],
      "payable": false,
      "stateMutability": "view",
      "type": "function"
    },
    {
      "constant": false,
      "inputs": [
        {
          "name": "_spender",
          "type": "address"
        },
        {
          "name": "_subtractedValue",
          "type": "uint256"
        }
      ],
      "name": "decreaseApproval",
      "outputs": [
        {
          "name": "",
          "type": "bool"
        }
      ],
      "payable": false,
      "stateMutability": "nonpayable",
      "type": "function"
    },
    {
      "constant": true,
      "inputs": [
        {
          "name": "_owner",
          "type": "address"
        }
      ],
      "name": "balanceOf",
      "outputs": [
        {
          "name": "balance",
          "type": "uint256"
        }
      ],
      "payable": false,
      "stateMutability": "view",
      "type": "function"
    },
    {
      "constant": false,
      "inputs": [],
      "name": "finishMinting",
      "outputs": [
        {
          "name": "",
          "type": "bool"
        }
      ],
      "payable": false,
      "stateMutability": "nonpayable",
      "type": "function"
    },
    {
      "constant": false,
      "inputs": [],
      "name": "pause",
      "outputs": [],
      "payable": false,
      "stateMutability": "nonpayable",
      "type": "function"
    },
    {
      "constant": true,
      "inputs": [],
      "name": "owner",
      "outputs": [
        {
          "name": "",
          "type": "address"
        }
      ],
      "payable": false,
      "stateMutability": "view",
      "type": "function"
    },
    {
      "constant": true,
      "inputs": [],
      "name": "symbol",
      "outputs": [
        {
          "name": "",
          "type": "string"
        }
      ],
      "payable": false,
      "stateMutability": "view",
      "type": "function"
    },
    {
      "constant": false,
      "inputs": [
        {
          "name": "_to",
          "type": "address"
        },
        {
          "name": "_value",
          "type": "uint256"
        }
      ],
      "name": "transfer",
      "outputs": [
        {
          "name": "",
          "type": "bool"
        }
      ],
      "payable": false,
      "stateMutability": "nonpayable",
      "type": "function"
    },
    {
      "constant": false,
      "inputs": [
        {
          "name": "_spender",
          "type": "address"
        },
        {
          "name": "_addedValue",
          "type": "uint256"
        }
      ],
      "name": "increaseApproval",
      "outputs": [
        {
          "name": "",
          "type": "bool"
        }
      ],
      "payable": false,
      "stateMutability": "nonpayable",
      "type": "function"
    },
    {
      "constant": true,
      "inputs": [
        {
          "name": "_owner",
          "type": "address"
        },
        {
          "name": "_spender",
          "type": "address"
        }
      ],
      "name": "allowance",
      "outputs": [
        {
          "name": "",
          "type": "uint256"
        }
      ],
      "payable": false,
      "stateMutability": "view",
      "type": "function"
    },
    {
      "constant": false,
      "inputs": [
        {
          "name": "newOwner",
          "type": "address"
        }
      ],
      "name": "transferOwnership",
      "outputs": [],
      "payable": false,
      "stateMutability": "nonpayable",
      "type": "function"
    },
    {
      "inputs": [
        {
          "name": "_cap",
          "type": "uint256"
        }
      ],
      "payable": false,
      "stateMutability": "nonpayable",
      "type": "constructor"
    },
    {
      "anonymous": false,
      "inputs": [],
      "name": "Pause",
      "type": "event"
    },
    {
      "anonymous": false,
      "inputs": [],
      "name": "Unpause",
      "type": "event"
    },
    {
      "anonymous": false,
      "inputs": [
        {
          "indexed": true,
          "name": "to",
          "type": "address"
        },
        {
          "indexed": false,
          "name": "amount",
          "type": "uint256"
        }
      ],
      "name": "Mint",
      "type": "event"
    },
    {
      "anonymous": false,
      "inputs": [],
      "name": "MintFinished",
      "type": "event"
    },
    {
      "anonymous": false,
      "inputs": [
        {
          "indexed": true,
          "name": "previousOwner",
          "type": "address"
        },
        {
          "indexed": true,
          "name": "newOwner",
          "type": "address"
        }
      ],
      "name": "OwnershipTransferred",
      "type": "event"
    },
    {
      "anonymous": false,
      "inputs": [
        {
          "indexed": true,
          "name": "owner",
          "type": "address"
        },
        {
          "indexed": true,
          "name": "spender",
          "type": "address"
        },
        {
          "indexed": false,
          "name": "value",
          "type": "uint256"
        }
      ],
      "name": "Approval",
      "type": "event"
    },
    {
      "anonymous": false,
      "inputs": [
        {
          "indexed": true,
          "name": "from",
          "type": "address"
        },
        {
          "indexed": true,
          "name": "to",
          "type": "address"
        },
        {
          "indexed": false,
          "name": "value",
          "type": "uint256"
        }
      ],
      "name": "Transfer",
      "type": "event"
    }
  ],
  "bytecode": "0x60606040526003805460a060020a60ff02191690556005805460ff19169055341561002957600080fd5b604051602080610df88339810160405280805160038054600160a060020a03191633600160a060020a031617905591508190506000811161006957600080fd5b60045550610d7c8061007c6000396000f3006060604052600436106101115763ffffffff7c010000000000000000000000000000000000000000000000000000000060003504166305d2035b811461011657806306fdde031461013d578063095ea7b3146101c757806318160ddd146101e957806323b872dd1461020e578063313ce56714610236578063355274ea1461025f5780633f4ba83a1461027257806340c10f19146102875780635c975abb146102a957806366188463146102bc57806370a08231146102de5780637d64bcb4146102fd5780638456cb59146103105780638da5cb5b1461032357806395d89b4114610352578063a9059cbb14610365578063d73dd62314610387578063dd62ed3e146103a9578063f2fde38b146103ce575b600080fd5b341561012157600080fd5b6101296103ed565b604051901515815260200160405180910390f35b341561014857600080fd5b61015061040e565b60405160208082528190810183818151815260200191508051906020019080838360005b8381101561018c578082015183820152602001610174565b50505050905090810190601f1680156101b95780820380516001836020036101000a031916815260200191505b509250505060405180910390f35b34156101d257600080fd5b610129600160a060020a0360043516602435610445565b34156101f457600080fd5b6101fc6104b1565b60405190815260200160405180910390f35b341561021957600080fd5b610129600160a060020a03600435811690602435166044356104b7565b341561024157600080fd5b610249610639565b60405160ff909116815260200160405180910390f35b341561026a57600080fd5b6101fc61063e565b341561027d57600080fd5b610285610644565b005b341561029257600080fd5b610129600160a060020a03600435166024356106a8565b34156102b457600080fd5b610129610720565b34156102c757600080fd5b610129600160a060020a0360043516602435610729565b34156102e957600080fd5b6101fc600160a060020a0360043516610823565b341561030857600080fd5b61012961083e565b341561031b57600080fd5b6102856108f5565b341561032e57600080fd5b61033661095b565b604051600160a060020a03909116815260200160405180910390f35b341561035d57600080fd5b61015061096a565b341561037057600080fd5b610129600160a060020a03600435166024356109a1565b341561039257600080fd5b610129600160a060020a0360043516602435610a9c565b34156103b457600080fd5b6101fc600160a060020a0360043581169060243516610b40565b34156103d957600080fd5b610285600160a060020a0360043516610b6b565b60035474010000000000000000000000000000000000000000900460ff1681565b60408051908101604052601881527f4465706f7369746f7279206e6574776f726b20746f6b656e0000000000000000602082015281565b600160a060020a03338116600081815260026020908152604080832094871680845294909152808220859055909291907f8c5be1e5ebec7d5bd14f71427d1e84f3dd0314c0f7b2291e5b200ac8c7c3b9259085905190815260200160405180910390a350600192915050565b60005481565b6000600160a060020a03831615156104ce57600080fd5b600160a060020a0384166000908152600160205260409020548211156104f357600080fd5b600160a060020a038085166000908152600260209081526040808320339094168352929052205482111561052657600080fd5b600160a060020a03841660009081526001602052604090205461054f908363ffffffff610c1116565b600160a060020a038086166000908152600160205260408082209390935590851681522054610584908363ffffffff610c2316565b600160a060020a038085166000908152600160209081526040808320949094558783168252600281528382203390931682529190915220546105cc908363ffffffff610c1116565b600160a060020a03808616600081815260026020908152604080832033861684529091529081902093909355908516917fddf252ad1be2c89b69c2b068fc378daa952ba7f163c4a11628f55a4df523b3ef9085905190815260200160405180910390a35060019392505050565b601281565b60045481565b60035433600160a060020a0390811691161461065f57600080fd5b60055460ff16151561067057600080fd5b6005805460ff191690557f7805862f689e2f13df9f062ff482ad3ad112aca9e0847911ed832e158c525b3360405160405180910390a1565b60035460009033600160a060020a039081169116146106c657600080fd5b60035474010000000000000000000000000000000000000000900460ff16156106ee57600080fd5b600454600054610704908463ffffffff610c2316565b111561070f57600080fd5b6107198383610c32565b9392505050565b60055460ff1681565b600160a060020a0333811660009081526002602090815260408083209386168352929052908120548083111561078657600160a060020a0333811660009081526002602090815260408083209388168352929052908120556107bd565b610796818463ffffffff610c1116565b600160a060020a033381166000908152600260209081526040808320938916835292905220555b600160a060020a0333811660008181526002602090815260408083209489168084529490915290819020547f8c5be1e5ebec7d5bd14f71427d1e84f3dd0314c0f7b2291e5b200ac8c7c3b925915190815260200160405180910390a35060019392505050565b600160a060020a031660009081526001602052604090205490565b60035460009033600160a060020a0390811691161461085c57600080fd5b60035474010000000000000000000000000000000000000000900460ff161561088457600080fd5b600380547fffffffffffffffffffffff00ffffffffffffffffffffffffffffffffffffffff16740100000000000000000000000000000000000000001790557fae5184fba832cb2b1f702aca6117b8d265eaf03ad33eb133f19dde0f5920fa0860405160405180910390a150600190565b60035433600160a060020a0390811691161461091057600080fd5b60055460ff161561092057600080fd5b6005805460ff191660011790557f6985a02210a168e66602d3235cb6db0e70f92b3ba4d376a33c0f3d9434bff62560405160405180910390a1565b600354600160a060020a031681565b60408051908101604052600481527f4445504f00000000000000000000000000000000000000000000000000000000602082015281565b6000600160a060020a03831615156109b857600080fd5b600160a060020a0333166000908152600160205260409020548211156109dd57600080fd5b600160a060020a033316600090815260016020526040902054610a06908363ffffffff610c1116565b600160a060020a033381166000908152600160205260408082209390935590851681522054610a3b908363ffffffff610c2316565b600160a060020a0380851660008181526001602052604090819020939093559133909116907fddf252ad1be2c89b69c2b068fc378daa952ba7f163c4a11628f55a4df523b3ef9085905190815260200160405180910390a350600192915050565b600160a060020a033381166000908152600260209081526040808320938616835292905290812054610ad4908363ffffffff610c2316565b600160a060020a0333811660008181526002602090815260408083209489168084529490915290819020849055919290917f8c5be1e5ebec7d5bd14f71427d1e84f3dd0314c0f7b2291e5b200ac8c7c3b92591905190815260200160405180910390a350600192915050565b600160a060020a03918216600090815260026020908152604080832093909416825291909152205490565b60035433600160a060020a03908116911614610b8657600080fd5b600160a060020a0381161515610b9b57600080fd5b600354600160a060020a0380831691167f8be0079c531659141344cd1fd0a4f28419497f9722a3daafe3b4186f6b6457e060405160405180910390a3600380547fffffffffffffffffffffffff000000000000000000000000000000000000000016600160a060020a0392909216919091179055565b600082821115610c1d57fe5b50900390565b60008282018381101561071957fe5b60035460009033600160a060020a03908116911614610c5057600080fd5b60035474010000000000000000000000000000000000000000900460ff1615610c7857600080fd5b600054610c8b908363ffffffff610c2316565b6000908155600160a060020a038416815260016020526040902054610cb6908363ffffffff610c2316565b600160a060020a0384166000818152600160205260409081902092909255907f0f6798a560793a54c3bcfe86a93cde1e73087d944c0ea20544137d41213968859084905190815260200160405180910390a2600160a060020a03831660007fddf252ad1be2c89b69c2b068fc378daa952ba7f163c4a11628f55a4df523b3ef8460405190815260200160405180910390a3506001929150505600a165627a7a72305820983c0aab871822cb07c0896ea7582d953f7f29fbd1d685e420a1dd4e1b6aaece0029",
  "source": "pragma solidity ^0.4.18;\n\nimport \"./../node_modules/zeppelin-solidity/contracts/token/CappedToken.sol\";\nimport \"./../node_modules/zeppelin-solidity/contracts/lifecycle/Pausable.sol\";\n\n/**\n * @title ICOToken\n * `StandardToken` functions.\n */\ncontract ICOToken is CappedToken, Pausable {\n\n    string public constant name = \"Depository network token\";\n    string public constant symbol = \"DEPO\";\n    uint8 public constant decimals = 18;\n\n    /**\n     * @dev Constructor that sets msg.sender as owner\n     */\n    function ICOToken(uint256 _cap) public\n        CappedToken(_cap) {\n    }\n}",
  "sourcePath": "/Users/chris/Projects/DEPO/innimmo-ico/contracts/ICOToken.sol",
  "compiler": {
    "name": "solc",
    "version": "0.4.21+commit.dfe3193c.Emscripten.clang"
  },
  "schemaVersion": "2.0.0",
  "updatedAt": "2018-05-03T11:49:54.725Z"
}